:020000040800F2
:100000009819022089020008AB020008A901000823
:10001000AF020008B1020008B302000800000000AF
:10002000000000000000000000000000B90100080E
:10003000B70200080000000015020008D5260008DD
:10004000BD020008BD020008BD020008BD02000894
:10005000BD020008BD020008AD11000871120008C1
:1000600095120008B9120008DD120008BD02000850
:10007000BD0F0008BD020008BD020008BD02000857
:10008000BD020008BD020008BD020008BD02000854
:10009000BD020008BD020008BD02000801130008EF
:1000A000BD02000849290008BD020008BD02000881
:1000B00095290008C1290008F1290008BD0200089F
:1000C000BD020008BD020008BD020008BD02000814
:1000D000BD020008692E0008752E0008812E000858
:1000E000D1110008BD020008BD020008BD020008D1
:1000F000B12A0008BD020008BD020008BD020008C8
:100100000000000000000000212A0008BD020008D5
:10011000BD020008BD020008512A0008812A00081B
:10012000BD020008BD020008BD020008BD020008B3
:10013000BD020008BD020008BD020008BD020008A3
:1001400000000000000000000000000000000000AF
:10015000BD020008BD020008BD020008BD02000883
:10016000BD020008BD020008BD020008BD02000873
:10017000BD020008BD02000800000000DFF814D036
:1001800000F0BEFC00F050F900480047FDCB02082B
:1001900000F0EBFB98190220EFF308807047EFF3B3
:1001A00009807047684670477046694617F0DEFA66
:1001B00031F05CF9FEE700002C4B19680868B0E8E4
:1001C000F04F80F30988BFF36F8F4FF0000080F38A
:1001D000118870470000000008480068006880F33C
:1001E00008884FF0000080F3148862B661B6BFF350
:1001F0004F8FBFF36F8F00DF00BF00BF08ED00E03F
:10020000DFF80C00016841F470010160704700BF25
:1002100088ED00E0EFF30980BFF36F8F134B1A688E
:100220001EF0100F08BF20ED108A20E9F04F10607B
:1002300009B44FF0500080F31188BFF34F8FBFF324
:100240006F8F31F023FB4FF0000080F3118809BC61
:1002500019680868B0E8F04F1EF0100F08BFB0EC46
:10026000108A80F30988BFF36F8F7047CC08002095
:10027000EFF3058070470000EFF308807047EFF35D
:10028000098070476846704741F20000C2F20000E2
:1002900085460B48804740F20000C0F60000D0F8C9
:1002A00000D00848804708480047FEE7FEE7FEE721
:1002B000FEE7FEE7FEE7FEE7FEE7FEE7FEE70000FB
:1002C00059C001087D2700087D0100082DE9F05F75
:1002D0000546002092469B468846064681464024B5
:1002E0001BE0284641464746224600F00CFB534699
:1002F0005A46C01A914110D311461846224600F0C2
:10030000F3FA2D1A67EB01084F462246012000211F
:1003100000F0EAFA17EB00094E41201EA4F1010497
:10032000DFDC484631462A464346BDE8F09F0000E0
:100330000649074A0868504343F2390210440860EE
:100340004008704701490860704700009809002084
:100350006D4EC64110B5431A934209D283188818CE
:1003600003E010F8011D03F8011D521EF9D210BD63
:1003700040EA01039B0703D009E008C9121F08C027
:10038000042AFAD203E011F8013B00F8013B521EA7
:10039000F9D210BDD2B201E000F8012B491EFBD208
:1003A00070470022F6E710B513460A460446194680
:1003B000FFF7F0FF204610BD10B5044604E00B78AF
:1003C00000F8013B03B1491C521EF8D2204610BD73
:1003D000421C10F8011B0029FBD1801A704710B590
:1003E000002200E0521C835C8C5CA34201D1002BF4
:1003F000F8D1D8B2E1B2401A10BD30B504460020A1
:10040000034600E05B1C934203D2E05CCD5C401BE2
:10041000F8D030BD034611F8012B00F8012B002A5B
:10042000F9D118467047000070B5054C054D03E042
:10043000206820448047241DAC42F9D170BD0000E3
:10044000FCFE070844FF07082DE9F0410746154662
:100450000E46102010F016FA04000AD06760C4E9B6
:10046000026500F073FA0168216004600020BDE8B5
:10047000F0810120FBE72DE9FE4F804681EA030071
:10048000C00F0C46009021F0004123F00045B8EB6E
:100490000200A94105D24046214690461C460B4623
:1004A000024623F00040104347D0270DC7F30A004F
:1004B000C3F30A510290401A019040286BDAC3F34B
:1004C000130040F4801B0098924620B10023D2EB29
:1004D000030A63EB0B0B01985946C0F140025046EA
:1004E00000F002FA06460D4650465946019A00F0C1
:1004F0001AFA10EB08006141002487EA115284EADD
:10050000E7731A4340D0009A62B3019A012A4FEA76
:10051000075215DC001B61EB02014FF0004202EABA
:100520000752CDE90042001C41F5801132462B46AE
:1005300000F04BFA03B0BDE8F08F40462146F9E7E2
:10054000001B61EB0201001C41F5801300185B41A8
:100550002018A2F5001747EB030140EAD570B61941
:100560006D4111E06D084FEA360645EAC0754FEA65
:100570000752001B61EB0201001C41F58011490884
:100580004FEA30000019514132462B4603B0BDE816
:10059000F04F00F00BBA0098012240000023D0EB8E
:1005A000020263EBE073009821464FEAE074B8EB77
:1005B000000061EB0401E9E783F000435BE781F0B1
:1005C000004158E72DE9FE4F81EA030404F000449E
:1005D00021F0004100944FF0000B23F0004350EA5B
:1005E00001045ED052EA03045BD0C3F30A54C1F3A2
:1005F0000A552C44A4F2F3340194A0FB0254C1F335
:10060000130141F48011C3F3130343F4801301FB7E
:10061000024400FB034E840A970A44EA815447EAE5
:100620008357A4FB076802958D0A05FB07854FEAEF
:10063000932C04FB0C542705029D4FEA065847EA09
:100640001637B5EB08056EEB070C870E920E47EADE
:10065000811742EA8312A7FB0201B6EB0B0164EBA0
:1006600000042B0D43EA0C335E1844EB1C50DA46B1
:100670005146E7FB0201C5F313044FEA0B3343EA8B
:1006800014534FEA0432019C43EA0603A4F10C041C
:100690000294009CCDE900B400F097F903B0BDE8E6
:1006A000F08F00200146F9E72DE9F04D81EA0304BF
:1006B00004F0004B21F0004514464FF0000A23F0EF
:1006C000004150EA050220D054EA01021DD0C5F3D2
:1006D0000A570246C5F31303C1F31300C1F30A56C8
:1006E00040F4801543F48013A7EB0608101BD64690
:1006F00008F2FD3873EB050002D308F1010801E0B0
:1007000092185B41B8F1000F03DA00200146BDE802
:10071000F08D00204FF48011064684460EE0171B32
:1007200073EB050705D3121B63EB050306434CEA85
:10073000010C49084FEA300092185B4150EA01076A
:10074000EDD152EA030012D082EA040083EA0501E7
:10075000084305D0101BAB4106D20122002306E05E
:1007600000224FF0004302E06FF0010253101AEB39
:1007700006004CEB085110EB0A0041EB0B01BDE801
:10078000F04D00F013B90EB5C10F80EAE0700844D7
:10079000CA07002140F233438DE80E000A460B469B
:1007A00000F013F903B000BD0EB540F233410291E1
:1007B0000021CDE900110A460B4600F006F903B00E
:1007C00000BD70B5C1F30A5201F000450024C1F329
:1007D000130140F2FF3341F480119A4201DA002004
:1007E00070BD40F233439A42A2F2334203DC5242DC
:1007F00000F089F800E090402C43F1D0404270BDF9
:10080000C1F30A5210B5C1F3130140F2FF3341F4B2
:1008100080119A4201DA002010BD40F233439A421F
:10082000A2F2334203DC524200F06DF810BD90405A
:1008300010BD00F0004230F000400AD0C10D01F5BB
:100840006071C0F3160042EA0151C208400711432B
:10085000704700200146704730B5041E71F1000456
:1008600004DB4FF00044404264EB0101141E73F1BD
:10087000000405DB1C464FF00043524263EB0403C7
:100880008B4208BF824230BD30B5041E71F10004B6
:1008900004DB4FF00044404264EB0101141E73F18D
:1008A000000405DB1C464FF00043524263EB040397
:1008B000994208BF904230BD00F0EDB830B50B460C
:1008C000014600202022012409E021FA02F59D4280
:1008D00005D303FA02F5491B04FA02F52844151E54
:1008E000A2F10102F1DC30BD202A04DB203A00FA3B
:1008F00002F1002070479140C2F1200320FA03F377
:10090000194390407047202A04DB203A21FA02F074
:100910000021704721FA02F3D040C2F12002914039
:10092000084319467047202A06DBCB17203A41FAC4
:1009300002F043EAE07306E041FA02F3D040C2F16C
:100940002002914008431946704700000048704754
:10095000A4090020034870470248001D011F886059
:10096000001D7047A809002070472DE9F041064698
:10097000FFF7ECFF8046454613E016B1E068B04251
:100980000ED120682860D4E90101D8F800708847AA
:1009900020460FF049FFD8F80000B842EBD100E044
:1009A00025462C68002CE8D1BDE8F08110B5141E56
:1009B00073F1000408DA401C41F1000192185B4118
:1009C0001A4301D120F0010010BD2DE9F04D9246EF
:1009D0009B4611B1B1FA81F202E0B0FA80F2203206
:1009E0009046FFF781FF04460F4640EA0A0041EABD
:1009F0000B0153465A46084313D0114653EA0100EF
:100A000019D0C8F140025046FFF77DFF05460E465B
:100A1000504659464246FFF767FF084305D001207C
:100A200004E020463946BDE8F08D0020054346EA43
:100A3000E0762C4337430A986305E40AA0EB0800EC
:100A40000022FD0A44EA47540A3002D5002001463C
:100A5000E9E7010510196941DDE908450019694117
:100A6000BDE8F04DA2E7C1F30A52C1F3130140F211
:100A7000FF3341F480119A4202DA002001467047A8
:100A800040F233439A42A2F2334202DC5242FFF771
:100A90003ABFFFF729BF10B500F00DF8016919B191
:100AA00000220261884701E080688047AFF3008040
:100AB00010B5AFF3008070B5FFF74EFF0468054630
:100AC000A4B920200FF0DEFE040011D00949002057
:100AD0002C60C4E900010849A160207320616061B5
:100AE0000649A06109B100F01EF8E061204670BD22
:100AF000AFF3008000000000B10A00080000000011
:100B0000064C074D06E0E06840F0010394E807005A
:100B100098471034AC42F6D3FFF734FBDCFE0708ED
:100B2000FCFE0708704710B588200FF0ABFE0028C8
:100B300001D00021017010BD802902D808B10178D0
:100B400009B100207047012100F8081B704718B157
:100B500000F10802914201D000207047002101708D
:100B6000704770B58C1810F8015B15F0070301D1C0
:100B700010F8013B2A1106D110F8012B03E010F800
:100B8000016B01F8016B5B1EF9D12B0705D4002323
:100B9000521E0DD401F8013BFAE710F8013BCB1AC5
:100BA000921C03E013F8015B01F8015B521EF9D5BA
:100BB000A142D8D3002070BD0029816802D041F045
:100BC000010101E021F00101816070470029816885
:100BD00002D041F4807101E021F48071816070479E
:100BE00010B508B301281FD002281DD003281BD040
:100BF000042819D0052817D0062815D0072813D0A7
:100C0000082811D009280FD00A280DD00B280BD0A6
:100C10000C2809D00D2807D00E2805D00F2803D0A6
:100C2000102801D0112807D100F0DEF8411C03D0B4
:100C3000024931F8100010BD002010BDB60B022093
:100C40002DE9F041012190B0084601F003FA01219D
:100C5000480201F023FA394E304600F013FA3848C2
:100C6000009038480024384DCDE901042878CDE9BA
:100C7000030480200590400006908000079020200B
:100C800008900002CDE909046946304600F0DCF91D
:100C90000121304600F0B8F9294E4C3E304600F0B4
:100CA00025F90BA800F058F901208DF830008DF8D7
:100CB00031000B944FF46020CDE90D0428788DF8B5
:100CC0003C000BA9304600F0B3F84FF4404001F06F
:100CD000B5F91C4FB046123F0DE0661CF2B2395D0B
:100CE0000523404600F0C8F8385D102802D10120E5
:100CF00000F03CF9B4B228788442EED30121444696
:100D00004046FFF763FF01212046FFF755FF2046CD
:100D100000F00EF9204600F084F80028FAD12046B1
:100D200000F015F9204600F075F80028FAD10121ED
:100D3000204600F002F910B0BDE8F0810800024042
:100D40004C240140B60B02206009002070B5244DF0
:100D50000446244E687840B90020FF213154401CDD
:100D6000C0B21228FAD30120687024B3012C22D01B
:100D7000022C20D0032C1ED0042C1CD0052C1AD001
:100D8000062C18D0072C16D0082C14D0092C12D001
:100D90000A2C10D00B2C0ED00C2C0CD00D2C0AD001
:100DA0000E2C08D00F2C06D0102C04D0112C02D001
:100DB0004FF0FF3070BD204600F016F8401C02D006
:100DC0006FF0010070BD2878122802D36FF0020086
:100DD00070BD3454401CC0B22870401E70BD00006D
:100DE00060090020A40B0220094910B5024600202A
:100DF000064B097804E01C5C944205D0401CC0B24C
:100E00008842F8D34FF0FF3010BD0000A40B022041
:100E100060090020014600208968490700D50120AB
:100E20007047014600208968090700D501207047F6
:100E300010B542680E4B0C791A400B6842EA042246
:100E40001343436083680B4A1340D1E902422243B3
:100E50004C7943EA44031A438260C26A097C22F453
:100E60007002491EC9B242EA0151C16210BD0000C0
:100E7000FFFEF0FFFDF7F1FD70B5072409290AD93F
:100E8000C568A1F10A0606EB4606B440A543B34087
:100E90001D43C56007E0056901EB4106B440A54369
:100EA000B3401D4305611F23072A09D2446B521E1C
:100EB00002EB820293409C4391400C43446370BD1B
:100EC0000D2A09D2046BD21F02EB820293409C438D
:100ED00091400C43046370BDC46A0D3A02EB820278
:100EE00093409C4391400C43C46270BD0D4910B5C2
:100EF000884202D1012144150AE00B49884202D1FF
:100F00000121041504E0094988420AD10121CC03DA
:100F1000204601F0CFF82046BDE81040002101F046
:100F2000C9B810BD0024014000280140003C014028
:100F3000816841F00801816070470029816802D012
:100F400041F4A00101E021F4A001816070478168B3
:100F500041F004018160704700210160017141711D
:100F60008160C160012101747047000005490028BB
:100F7000086802D040F4000001E020F4000008609E
:100F8000704700000824014008B502490844009059
:100F9000008808BD006C004010B5012001F096F8F3
:100FA000BDE81040002001F091B8000008B5024AE9
:100FB00010440090016008BD006C004010B5104C5A
:100FC000A068018821F001010180202000F028F8AC
:100FD0000021E06800F018F80A48026DB0F85C10D3
:100FE0001161818F006B0161052103202CF02EFB24
:100FF0006068002803D0BDE8104020F05DBC10BD43
:101000005C05002098EE07080029016802D041F035
:10101000010102E04FF6FE721140016070470000CE
:10102000C10002D502490860704702494860704714
:101030000404024000000240002A026801D00A4372
:1010400000E08A430260704730B5036847F6F072EB
:1010500093430C6A8A682243D1E904452C43224316
:101060008C692243CC6922434C6A22438C6A224316
:101070001A430260CA6842600A6882604968C160B7
:1010800030BD000001684FF6FE7211400160002182
:10109000016041608160C1603149314A0839904244
:1010A00003D1486840F00F0006E02D4A1432904208
:1010B00004D1486840F0F00048607047284A283260
:1010C000904203D1486840F47060F5E7244A3C320E
:1010D000904203D1486840F47040EDE7204A503216
:1010E000904203D1486840F47020E5E71C4A64321E
:1010F000904203D1486840F47000DDE7184A783226
:10110000904203D1486840F07060D5E7154A111F3E
:10111000904203D1086840F00F0006E0114A1432F3
:10112000904204D1086840F0F000086070470D4A12
:101130002832904203D1086840F47060F5E7094A0C
:101140003C32904203D1086840F47040EDE7054A14
:1011500050329042EAD1086840F47020E5E7000080
:10116000080002400804024070B501F0C9FA0E48B8
:101170004FF47A714FF0FF350068B0FBF1F1491E72
:10118000B1F1807F0AD24FF0E02461610F2128463F
:101190000FF02EFB0020A061072020612846BDE84B
:1011A000704000210FF024BB8409002010B50120FD
:1011B00000F0EAF8002808D00448006800B1804731
:1011C000BDE81040012000F0D9B810BDDC0B0220B2
:1011D00070B54FF48065284600F0D6F8234C28B14E
:1011E000A16A01B18847284600F0C8F84FF40065AD
:1011F000284600F0C9F828B1E16A01B188472846BD
:1012000000F0BCF84FF48055284600F0BDF828B136
:10121000216B01B18847284600F0B0F84FF4005523
:10122000284600F0B1F828B1616B01B18847284623
:1012300000F0A4F84FF48045284600F0A5F828B146
:10124000A16B01B18847284600F098F84FF400459B
:10125000284600F099F8002807D0E16B01B18847D3
:101260002846BDE8704000F089B870BDDC0B022054
:1012700010B5022000F088F8002808D00448406823
:1012800000B18047BDE81040022000F077B810BDE3
:10129000DC0B022010B5042000F076F8002808D0FE
:1012A0000448806800B18047BDE81040042000F089
:1012B00065B810BDDC0B022010B5082000F064F802
:1012C000002808D00448C06800B18047BDE810403D
:1012D000082000F053B810BDDC0B022010B5102020
:1012E00000F052F8002808D00448006900B1804797
:1012F000BDE81040102000F041B810BDDC0B02200A
:1013000070B5202000F040F81B4C28B1606900B196
:101310008047202000F032F8402000F035F828B156
:10132000A06900B18047402000F028F8802000F03C
:101330002BF828B1E06900B18047802000F01EF84A
:101340004FF48075284600F01FF828B1216A01B1DA
:101350008847284600F012F84FF40075284600F040
:1013600013F8002807D0616A01B188472846BDE814
:10137000704000F003B870BDDC0B0220014908602A
:101380007047000014040140064A0146002012681C
:10139000044B0A4014331B680B4202D0002A00D0D1
:1013A000012070470004014010B530F0C9FD064C23
:1013B0002168884207D130F0D7FDA168401AE0606B
:1013C00021690844206110BD4009002070B5A525A1
:1013D00000F04CF800B100254FF08056304600F088
:1013E00081F8042825D1144C1248A0601348A0604D
:1013F000206940F020002061206940F04000206119
:10140000304600F06FF804280DD1206920F020004C
:101410002061206940F010002061094805804FF4E8
:10142000704000F05FF8052803D0216921F0100119
:10143000216170BD2301674500200240AB89EFCDDB
:1014400000F8FF1F08490420CA68D20701D0012014
:101450007047CA68520701D502207047C968C9069B
:10146000FBD5032070470000002002400349002004
:10147000C969890700D5012070470000002002409B
:10148000F0B506464FF470470D46384600F02AF88E
:10149000042812D10A4C0948A0600A48A0602069BB
:1014A00040F0100020613580384600F01BF8052818
:1014B00003D0216921F010012161F0BD23016745AE
:1014C00000200240AB89EFCD044803494160044A43
:1014D0004260416442647047230167450020024036
:1014E000AB89EFCD00B50346FFF7ACFF03E000BFCB
:1014F000FFF7A8FF5B1E012803D0002B00D10520B9
:1015000000BD002BF4D1FAE7F0B5CA78002502F04F
:101510000F03D20601D58A7813430A784FF00F0ED5
:1015200012F0FF0F4FF001021CD004680F8802FA7E
:1015300005F63740B74211D14FEA850C0EFA0CF789
:1015400024EA070703FA0CF43C43CF78282F02D093
:10155000482F02D002E0466100E006616D1C082DB4
:10156000E4D304600C88FF2C1ED944685FF00006A9
:1015700006F1080702FA07F50F882F40AF420FD196
:101580004FEA860C0EFA0CF7BC4303FA0CF73C4307
:10159000CF78282F00D14561CF78482F00D1056141
:1015A000761C082EE4D34460F0BD10B50121084636
:1015B00000F074FD0121BDE810404806AFF3008043
:1015C00070B5B0F1004F63D96FF07F4303EAD013D9
:1015D00000F07F04200904F00F04850004FA05F5EB
:1015E000062B14D2DFE803F00305080B0E11F44AB2
:1015F0000DE0F34A121D0AE0F14A083207E0F04A12
:101600000C3204E0EE4A103201E0ED4A143270B1BF
:10161000012810D002281DD003281FD0042821D073
:10162000052823D0062825D0072827D02AE01068CF
:1016300020F00F0025E0012B03D0106820F0F0000F
:101640001FE01068042C02D920F0C00019E020F03F
:10165000300016E0106820F4706012E0106820F48A
:1016600070400EE0106820F470200AE0106820F44A
:10167000700006E0106820F0706002E0106820F052
:1016800070401060012902D110682843106070BDBD
:10169000CB4A4FF48025203AA8420FD040DCB0F569
:1016A000007F71D01EDC10286FD008DC01286DD0BF
:1016B000022803D0042801D00828E8D198E0302877
:1016C00078D0402877D0C02876D0B0F5807FDED1A2
:1016D000506820F4407050600129D8D1506840F41F
:1016E00080704BE1B0F5804F67D00CDCB0F5407FE7
:1016F0007AD0B0F5006F78D0B0F5406F76D0B0F505
:10170000805FC4D174E0B0F5C04F70D0B0F5004F29
:101710006ED0B0F5803F6BD0B0F5003FB7D167E039
:10172000B0F1005F77D032DCB0F5000F74D015DC7B
:10173000B0F5002F5CD0B0F5801F59D0B0F5001F78
:101740006BD0B0F5800FA2D1506820F480005060BB
:1017500001299CD1506840F480000FE1B0F1807FF6
:1017600070D0B0F1007F6ED0B0F1806F6CD0B0F16E
:10177000805F8CD1506820F080505060012986D164
:10178000506840F08050F9E073E047E039E08D4C5C
:10179000031BA0421DD011DCB0F1804F73D0A0F12B
:1017A0008043203B15D0B3F5787F12D0864CE342BE
:1017B0008DD10EE03CE048E051E086E0AB4277D0CE
:1017C000B3F5402F75D0B3F5A01F73D0B3F5E01F6C
:1017D00097D1D369C0F315008343D361012990D118
:1017E000D1690143D16170BD4EE057E063E076E01E
:1017F0005368834353600129F5D151680143516017
:10180000F1E75068714B184050600129EBD15068E6
:1018100040F00100B2E094E09DE0A6E0506820F0C6
:10182000300050600129DED1506840F01000A5E082
:10183000506820F0300050600129D4D1506840F049
:1018400030009BE055E05EE067E0506820F0C000AB
:1018500050600129C7D1506840F040008EE05068C8
:1018600020F0C00050600129BDD1506840F0C00098
:1018700084E0506820F4407050600129B3D1506872
:1018800040F400707AE052E0506820F440705060FC
:101890000129A8D1506840F440706FE0506820F4EE
:1018A0004060506001299ED1506840F4006065E0BE
:1018B00066E06FE078E0506820F4406050600129F5
:1018C00091D1506840F4406058E0506820F4C04026
:1018D0005060012987D1506840F480404EE0506844
:1018E00020F4C040506001298AD1506840F4C040C3
:1018F00044E0506820F0E0605060012986D15068D3
:1019000040F080703AE0506820F0E06050600129BB
:1019100089D1506840F0007030E0506820F0E060FD
:101920005060012989D1506840F0806026E05068FD
:1019300020F08040506001298CD1506840F08040F8
:101940001CE0506820F00050506001298CD1506894
:1019500040F0005012E0506820F40000506001296F
:101960008CD1506840F4000008E0506820F400106A
:10197000506001298DD1506840F40010506032E76A
:10198000D06920F4C010D0610129F8D1D06940F4A9
:10199000002012E0D06920F4C010D0610129EED1FE
:1019A000D06940F4801008E0D06920F4C010D06104
:1019B0000129E4D1D06940F4C010D06113E70000E0
:1019C00020000140000004402000FEFFFEFFFF7FDA
:1019D00038B504462148844201D1042012E0204851
:1019E000844201D108200DE01E48844201D110201C
:1019F00008E01D48844201D1202003E01B488442B6
:101A00001DD14020E2B1012A1CD0022A1CD0032A99
:101A10001CD0052A1CD0062A1CD0082A1CD0072A54
:101A20000DD11C22ADF800108DF803208DF8023086
:101A3000012100F033FB69462046FFF765FD38BD04
:101A40000422EFE74822EDE72822EBE70022E9E74E
:101A50001022E7E71422E5E71822E3E70008014037
:101A6000000C01400010014000140140001801402A
:101A70000029018802D041F4806101E021F48061F5
:101A800001807047C943818270470029018802D0D4
:101A900041F0010101E021F00101018070470000E7
:101AA0000D4910B5884202D101214C050AE00B49CD
:101AB000884202D101218C0504E0094988420AD1FB
:101AC0000121CC05204600F0DDFA2046BDE810409B
:101AD000002100F0D7BA10BD00540040005800406B
:101AE000005C01400029018802D041F4807101E0CE
:101AF00021F48071018070470029018802D041F4EF
:101B0000007101E021F40071018070470CB50246BC
:101B1000002000920A0F21F07F41019202D0009A2A
:101B2000143202E0009A090C1832009212680A423C
:101B300000D001200CBD000070B50446808886B03E
:101B40000D4600F47F46684600F0C6FA2749029821
:101B5000B0FBF1F189B20E43A680228822F0010287
:101B60002280234B2A689A421CD85200B0FBF2F024
:101B700080B2042800D20420491C2184A08320883C
:101B800040F00100208021884FF6F5300140A88800
:101B90006A89104308432080A88929890843208145
:101BA00006B070BDEB88A3F53F46FF3E0BD002EBBD
:101BB000C20303EB0212B0FBF2F080B240F48040AB
:101BC000020506D007E002EB4202B0FBF2F080B261
:101BD000F6E740F001004FF4967251434FF47A72E9
:101BE000B1FBF2F140F40040C6E7000040420F00B4
:101BF000A0860100B1F5006F018803D021F40061D7
:101C00000180704741F40061FAE7008AC0B2704772
:101C100012B141F0010101E001F0FE0101827047C3
:101C20000182704741F288310160002181804BF6CA
:101C3000FF72C280018141814FF4804181817047F0
:101C40007FB5044623480D4684420AD10121480548
:101C500000F00CFA072116202BF0F8FC07211720C2
:101C60000CE01D48844233D10121880500F0FEF9C3
:101C700007211A202BF0EAFC07211B202BF0E6FCA1
:101C80002046FFF70DFF6846FFF7CCFF4FF480605A
:101C9000ADF80A000001ADF80C004BF6FF70ADF88E
:101CA00006000020ADF80400ADF808000095694674
:101CB0002046FFF741FF01212046FFF7D9FE4FF2F2
:101CC000FF712046FFF796FF01212046FFF7DDFE5A
:101CD0007FBD000000540040005800402DE9F84F3F
:101CE0008846924604461D4601210A9EFFF7C0FE23
:101CF00001212046FFF7F6FE344F20463946FFF714
:101D000005FF0028F9D02088C005FCD44FEA480917
:101D100009F0FF0100222046FFF77AFFDFF8AC80D0
:101D200008F1010841462046FFF7F0FE0028F9D0EF
:101D3000A08A208B009051462046FFF771FFDFF804
:101D40008CA00AF17F0A51462046FFF7DFFE0028EB
:101D5000F9D051462046FFF795FE01212046FFF7B6
:101D6000C1FE39462046FFF7D1FE0028F9D009F020
:101D7000FF0101222046FFF74BFF47463946204628
:101D8000FFF7C4FE0028F9D0A08A208B0F4F0090E7
:101D90003F3713E03EB900212046FFF769FE0121DD
:101DA0002046FFF7A9FE39462046FFF7AFFE002880
:101DB000F9D02046FFF729FF05F8010B761EE9D27E
:101DC00020888005FCD4BDE8F88F000001000010D9
:101DD0001CB500238DF804300123009301ABFFF7FD
:101DE0007DFF9DF804001CBD2DE9F8430F46914688
:101DF00005461C460121089EFFF774FEDFF87C8033
:101E000028464146FFF782FE0028F9D07806010EE9
:101E100000222846FFF7FCFE184F7F1C3946284653
:101E2000FFF774FE0028F9D0A88A288B0090494655
:101E30002846FFF7F5FE114F7F3739462846FFF752
:101E400065FE0028F9D039462846FFF71BFE761EAE
:101E50000BD314F8011B2846FFF7E2FE394628464B
:101E6000FFF754FE0028F9D0EDE701212846FFF7DF
:101E700043FE28888005FCD4BDE8F88301000010EB
:101E80000FB581B00123009304ABFFF7ADFF05B0A0
:101E900000BD81070CD16421B0FBF1F201FB1201FE
:101EA00041B94FF4C871B0FBF1F201FB120008B167
:101EB00000207047012070472DE9F0471646804604
:101EC00001FB06F00D4680000EF0DCFC041E24D061
:101ED00000274FEA860905E048460EF0D3FC44F897
:101EE00027007F1CAF42F7DB002002460EE000BF58
:101EF00054F8201061B1002105E000BF54F82030F3
:101F000043F82120491CB142F8DB401CA842EFDB1A
:101F1000C8F80050C8E901640120BDE8F08710B599
:101F20000022036806E00021446800E0491C8C425E
:101F3000FCDC521C9342F6DC10BD70B58468049E34
:101F40007CB154F8215054F8233055F8225043F80E
:101F500026508068002350F8210040F822300120EC
:101F600070BD002070BD000070B50F23C4780178EB
:101F70000122F4B1144C2468457804F4E064C4F5FB
:101F8000E064240AC4F10406E3408478B5401C40B0
:101F90002C4301F1E021230181F80034007800F0A6
:101FA0001F018A404009800000F1E020C0F80021B4
:101FB00070BD01F01F0082404809800000F1E02060
:101FC000C0F8802170BD00000CED00E02DE9F0416B
:101FD00016460C4650280ED2134901EB00156968CD
:101FE00049B1A97B39B134B12EB1104F04FB06F1D0
:101FF0003A68914202D90020BDE8F08108212BF017
:1020000025FB38680021B0FBF4F0B0FBF6F66868F9
:1020100000F077FD761E641EAB7BB2B2A1B2686899
:1020200000F0EAFBA87BE7E798EE070884090020A8
:10203000014908627047000000000E42034A5168DF
:10204000034B1940014351607047000000100240EB
:10205000FF3FFFEF044A0029516901D0014300E02E
:10206000814351617047000000100240044A00297A
:10207000D16901D0014300E08143D1617047000084
:1020800000100240044A0029116901D0014300E018
:10209000814311617047000000100240044A00298A
:1020A000916901D0014300E08143916170470000D4
:1020B00000100240044A0029D16801D0014300E029
:1020C0008143D16070470000001002400149086060
:1020D000704700004004424270B53D494A683D4B9C
:1020E00012F00C0204D0042A0AD0082A08D109E010
:1020F0000A6B920104D54A6D920501D5364A32E049
:10210000036031E04A6802F480344A68334D2A4063
:1021100012F0C04F05D1C2F383450F2D01D0022626
:1021200000E00126302505EA5265C2F383421543DB
:10213000721964B14C68A4030BD54C6D032505EAF4
:102140001434A41CB3FBF4F35343036004E0244BA6
:1021500000E0204B5A4302604A68002A04DB214A0F
:102160000368934200D902604A684B68C2F30212C6
:102170001C061D4B01D59C5C00E000240268E24077
:1021800042604C684D68C4F301246D0501D51C5DA7
:1021900000E0002422FA04F484604C684D68C4F323
:1021A000C124AD0401D51B5D00E00023DA40C2600C
:1021B0004B684968C3F38133C90001D543F0040378
:1021C00009490831C95CB2FBF1F1016170BD000041
:1021D0000010024000127A00006CDC0200003C603B
:1021E00000093D0000A24A04ACF4070802460020A2
:1021F00053090949012B0BD0022B0BD0D1F8241025
:1022000002F01F02012393400B4200D001207047CF
:102210000968F5E7096AF3E7001002400649002261
:1022200081F8202081F82020012802D0042802D142
:10223000052081F820007047001002400149086025
:10224000704700003C04424202490A6A02430A62A3
:10225000704700000010024005490128486D03D076
:1022600020F030004865704740F03000FAE7000089
:102270000010024002490A8882430A807047000029
:10228000042800400248018841F010010180704795
:10229000042800400248018821F0100101807047A5
:1022A000042800402DE9F04700F066F82E4F06465E
:1022B000B0FBF7F32D482E4C018899422ED00380B5
:1022C00040F2B2754FF4B7794FF4B6780DE0A8B28A
:1022D000FFF7DFFD30B14B4502D3A3F5B77303E041
:1022E0006D1C04E0A3F26D136D1C4345EFD8A5806F
:1022F0000025DFF880800BE0A088FFF7CAFD08B159
:10230000012D2DD018F80500984203D81B1A6D1C1A
:102310001C2BF1D26D1CA5715B1CE371B6FBF7F0B1
:1023200007FB10604FF46161B0FBF1F22270B0FB6B
:10233000F1F201FB12033C22B3FBF2F36370B0FB3A
:10234000F1F301FB1300B0FBF2F102FB1100A070EE
:10235000E279A179A08800F019F82072BDE8F08731
:102360001D2BD7D31D3BD2E7805101006809002007
:10237000580C0220A4F30708034800880249091FEB
:10238000098840EA014070471C28004030B56424A9
:10239000B0FBF4F3B0FBF4F5DBB204FB1500132B38
:1023A00001D96430C0B200EB90040723B4FBF3F50D
:1023B00003FB1544084D22440D44800715F8015CC9
:1023C0002A4492B203D1032901D2521E92B2B2FB27
:1023D000F3F003FB102030BD98F307081CB5012172
:1023E0004FF0C050FFF742FE0120FFF721FE04200E
:1023F000FEF7CAFD45F25104A0422DD0FEF7CCFDF8
:102400000120FFF70BFF4120FFF7F0FE0028FAD074
:102410004FF48070FFF718FF0120FFF70FFF00F067
:10242000B3F800F0A9F847F6FF7000F095F800F057
:10243000A3F808200021CDE9000103460246014629
:1024400040F2E27000F014F800F096F82146BDE882
:102450001C400420FEF7AABD00F096F800F08CF8AE
:102460000120FFF707FFBDE81C4000F085B8000021
:102470002DE9F05F9A4605460023A0F2B270DDF820
:1024800028B091468846822802D30120BDE8F09FFB
:1024900040F2B274244E254F07E0A0B2FFF7F9FCDA
:1024A00008B1334400E03B44641CAC42F5D3A8F1CE
:1024B0000100C6B200241E4FDFF878800EE0385DC0
:1024C00040F2A32110FB01F003EBC0132846FFF7F5
:1024D000E0FC10B1012C00D14344641CB442EED3A3
:1024E000A9F10100C0B240F2A32110FB01F0CAEB38
:1024F0004A1203EBC010C2EB0A2100EB0110CBEB38
:102500000B1100EB81000B99441801214FF0C050D2
:10251000FFF7ACFD0120FFF78BFD204600F00CF823
:1025200000F02AF80020B1E70085E2018033E101E4
:10253000A4F307088051010000B50246FFF7A2FE90
:102540000449100C0880081D02805DF804EBFFF7B9
:10255000A1BE00001828004000B50246FFF792FE19
:102560000449C2F303400880081D02805DF804EBB3
:10257000FFF790BE08280040024801888906FCD574
:1025800070470000042800400448018821F0080139
:10259000018001880907FCD570470000042800402D
:1025A0000029018802D041F0400101E021F0400102
:1025B0000180704730B5028802F441538A891204C1
:1025C000828802D542F4807201E022F48072828017
:1025D0000A884C88CD8822438C882C4322430C895E
:1025E00022434C8922438C89C4F30E042243CC89B4
:1025F00022431A430280828B22F400628283098A7A
:10260000018230BD1CB50020284C0190009021684B
:1026100041F0010121604FF6FF71226802F00202D1
:102620000092019A521C0192009A12B9019A8A42B0
:10263000F3D12168890737D5012000906068606078
:10264000606820F460506060606840F40050606032
:10265000606820F4E0606060606840F48060606002
:102660006068134908406060606812490843606010
:10267000206840F08070206020688001FCD5012037
:10268000FFF7EAFD606820F003006060606840F0DA
:10269000020060606068C0F381000228FAD1BDE8E2
:1026A0001C400020FFF7D8BD00901CBD0010024068
:1026B000FFFFC01F00002CE010B52FF041FC044CC0
:1026C0002168884202D12FF04FFCA06010BD0000AD
:1026D0004009002010B5502080F31188BFF34F8FC0
:1026E000BFF36F8F2FF046FC18B104494FF08050B4
:1026F0000860002080F3118810BD000004ED00E0A8
:1027000030B51A4A50681A4910F00C03194803D022
:10271000042B01D0082B0AD001605168154AC1F37F
:102720000311121D515C0268CA40026030BD51683D
:1027300001F48033516811F0C04F05D1C1F38344D7
:102740000F2C01D0022500E00125302404EA516459
:10275000C1F383410C43291913B153689B0301D57D
:10276000054B00E0024B5943D6E700000010024041
:1027700000127A008409002000093D00144810B5B9
:10278000016841F4700101601248016841F00101E3
:1027900001604168104A1140416001680F4A1140D0
:1027A0000160016821F48021016041680C4A1140F8
:1027B0004160016B0B4A114001634FF41F018160BE
:1027C000FFF720FF02494FF000608039086010BD1C
:1027D00088ED00E0001002400C00FFE8FFFFF6FE6D
:1027E000FFFF001700FFFEFE02480168491C016060
:1027F0007047000064090020F0B50446454889B0E0
:102800001E4615460F46844226D0B4F1804F23D091
:102810004148844220D0414884421DD040488442EF
:102820001AD04048844217D03F48844214D03F48D1
:10283000844211D03E4884420ED03E4884420BD0A0
:102840003D48844208D03D48844205D03C488442FB
:1028500002D03C4884425BD10121204600F09EFA20
:1028600005A800F091FAADF8145000250797ADF8CF
:10287000205005A92046069500F04CFA684600F065
:102880003FFA7020ADF800000220ADF80C000820DF
:10289000ADF80E000120ADF81050ADF81250ADF8B3
:1028A0000200ADF804500295012E06D0022E0DD084
:1028B000032E14D0042E23D11AE06946204600F0DE
:1028C00049F90821204600F06BF919E069462046D5
:1028D00000F06CF90821204600F09EF910E06946EE
:1028E000204600F0A3F90821204600F0D3F907E0C4
:1028F0006946204600F0D4F90821204600F0F6F998
:102900000121204600F007F90121204600F0F9F8E6
:1029100009B0F0BD002C0140000400400008004058
:10292000000C004000100040001400400034014042
:10293000004C01400050014000540140001800408C
:10294000001C00400020004070B50F4D01212846BA
:1029500000F0F4F80D4C30B1216801B18847012135
:10296000284600F0CBF80A4D0121284600F0E6F891
:10297000002808D0616A01B188472846BDE8704048
:10298000012100F0BBB870BD002C01401C0C0220DE
:102990000050014010B501218C07204600F0CEF810
:1029A000002809D00548416801B188472046BDE8A4
:1029B0001040012100F0A2B810BD00001C0C022044
:1029C00010B5094C0121204600F0B8F8002809D0C4
:1029D0000648816801B188472046BDE810400121C2
:1029E00000F08CB810BD0000000400401C0C022058
:1029F00010B5094C0121204600F0A0F8002809D0AC
:102A00000648C16801B188472046BDE81040012151
:102A100000F074B810BD0000000800401C0C02203B
:102A200010B5094C0121204600F088F8002809D093
:102A30000648016901B188472046BDE810400121E0
:102A400000F05CB810BD0000000C00401C0C02201F
:102A500010B5094C0121204600F070F8002809D07B
:102A60000648416901B188472046BDE81040012170
:102A700000F044B810BD0000001000401C0C022003
:102A800010B5094C0121204600F058F8002809D063
:102A90000648816901B188472046BDE81040012100
:102AA00000F02CB810BD0000001400401C0C0220E7
:102AB00070B50F4D0121284600F040F80D4C30B1A3
:102AC000E16901B188470121284600F017F80A4D55
:102AD0000121284600F032F8002808D0216B01B10E
:102AE00088472846BDE87040012100F007B870BD56
:102AF000003401401C0C0220001C0040C94301822C
:102B000070470029018802D041F0010101E021F065
:102B1000010101807047002930F8441F02D041F4C0
:102B2000004101E0C1F30E0101807047002A828953
:102B300001D00A4300E08A438281704702460020A8
:102B4000138A92890B4202EA010202D0002A00D0C5
:102B50000120704730B5028C22F001020284028C01
:102B60008488038B0D8823F073031D438B8922F027
:102B7000020213434A8824F440741A4322F00803E3
:102B8000CA891A4322F004038A881A430B8A234312
:102B90004C8A1C438480058389684163028430BD6C
:102BA000028B22F008020A430283704770B5028C40
:102BB00022F010020284048C8688028B0B7822F4A7
:102BC000E6454FF6FF7202EA03232B4324F020056B
:102BD0008C8926F4406602EA04142C434D8802EAEC
:102BE00005152543CC8925F0800502EA04142C4301
:102BF0008D8824F0400402EA051525430C8A02EA78
:102C0000840434434E8A02EA86022243828003838C
:102C100089688163058470BD028B4FF6FF7322F4CF
:102C2000006203EA012111430183704770B5028CF1
:102C300022F480720284028C8688838B0D8823F0B4
:102C400073031D4322F400740B7B4FF6FF7202EAFC
:102C5000032323438C7826F4405602EA04241C43C1
:102C60008B7B24F4006402EA0323234323F480646F
:102C70000B7902EA032323430C8A02EA0414344347
:102C80004E8A02EA06122243828085838968C163E4
:102C9000038470BD828B22F008020A43828370474E
:102CA00070B5028C22F480520284048C8688828B58
:102CB0000B7822F4E6454FF6FF7202EA03232B431A
:102CC0000D7B24F4005402EA053525438C7802EA92
:102CD00004342C4326F480450E8A02EA86122A43E5
:102CE0008280838389680164048470BD828B4FF67F
:102CF000FF7322F4006203EA0121114381837047CC
:102D0000002101804180818081608181C1810182B7
:102D1000418270470288154B98420ED0B0F1804F27
:102D20000BD0134B984208D0124B984205D0124B4F
:102D3000984202D0114B984204D18B8822F0700245
:102D400013439AB20E4B984206D00E4B984203D0D2
:102D500022F440738A891A4302808A68C2620A8810
:102D60000285897B0186012181827047002C014008
:102D700000080040000C0040003401400004004006
:102D800000100040001400404FF6FF7181600021E8
:102D9000018081814160817370470000254A904223
:102DA00001D1C01433E0B0F1804F04D0224A9042E8
:102DB00003D102203BE0012039E0204A904201D1BA
:102DC000042034E01E4A904201D108202FE01D4A21
:102DD000904201D110202AE01B4A904201D12020CC
:102DE00025E01A4A904201D1401410E0184A90425E
:102DF00002D14FF400200AE0164A904202D14FF46B
:102E0000801004E0144A904203D14FF40010FFF701
:102E100045B9124A904201D1402008E0104A904240
:102E200001D1802003E00F4A904202D18015FFF7C4
:102E30001DB97047002C014000040040000800400C
:102E4000000C00400010004000140040003401401D
:102E5000004C014000500140005401400018004067
:102E6000001C004000200040014808F081BB000029
:102E700024090220014808F07BBB0000C0090220A1
:102E8000014808F075BB00005C0A02200A0A012113
:102E90009140C943018070470029818902D041F4E3
:102EA000005101E021F40051818170470246002069
:102EB00012880A4200D00120704730B501F01F028D
:102EC00001240025C1F3421304FA02F2012B0FD0B2
:102ED000022B0FD0838A4FEA11210088134204FA93
:102EE00001F400EA040001D000B10125284630BDFC
:102EF0008389F0E7038AEEE710B5C1F3421301F0CE
:102F00001F040121A140012B07D0022B07D0143050
:102F1000002A026805D00A4304E00C30F8E71030BC
:102F2000F6E78A43026010BD30B50446008A85B0DA
:102F30000D464CF6FF710840E98801432182A189C2
:102F40004EF6F3100140A8882A8910436A890A4383
:102F50001043A081A08A4FF6FF410840A989014390
:102F6000A1826846FFF7B8F81948844201D1039856
:102F700000E00298A189090400EBC00101EB0010F8
:102F8000296801D5490000E08900B0FBF1F0642216
:102F9000B0FBF2F109010B096FF018056B4300EB70
:102FA0008300A3891D044FF0320306D503EBC00054
:102FB000B0FBF2F000F0070005E003EB0010B0FBFF
:102FC000F2F000F00F000843208105B030BD000092
:102FD000003801408088C0F308007047C1F3080141
:102FE000818070472DE9F0470F4681681E46804674
:102FF00051F82700089C51F826101546DFF87CA0F0
:1030000050F8252051F82410114440F8251007EB02
:1030100087000AEB8009802907DB59F82500002189
:10302000174B48F28E0210F023FBD8F8080015A1C8
:1030300050F82700574650F8252059F8250022F06F
:10304000F8FF06EB860507EB850757F8240024F008
:10305000DFF90A48643800EB850555F8240024F0B0
:10306000D7F9002045F8240047F82400D8F80810C4
:1030700051F8261041F82400BDE8F0879410002094
:10308000AC060020256400002DE9F04781460025AC
:103090006C1E8CB00E46D9F80820A046042001A969
:1030A00052F8203053F826302BB141F8350001EBAF
:1030B000C5036D1C5E60401EF2D5002D4ED000276A
:1030C0004FEA010A0AEBC50050E90212D9F80800DC
:1030D00050F8273053F82630CBB1002C36DBB8F14E
:1030E000000F33DB50F8241051F8280083422DD113
:1030F000424621463B4648460096FFF773FF6D1E49
:10310000002D23DD0AEBC50050E9021219E0002C66
:1031100017DBB8F1000F14DB50F8213050F824C051
:1031200053F822305CF8280083420AD100920B4603
:10313000424621464846FFF755FF6D1E002DE1DC53
:1031400006E03B464846009606F03EFB3C46B0464D
:103150006D1E002D02DD7F1C052FB3DB0CB0BDE81A
:10316000F087000010B5022005F072F9074904A0AD
:10317000886006480221BDE81040143806F0E3BE1E
:1031800041726475626F7933440000005CFB00207B
:1031900010B50E49002005F0CBFB0C48C01EC078CE
:1031A000022812D109490020C91C05F0EBFB074891
:1031B000C01CB0F90000A0F5EA41303905D18021EA
:1031C000BDE81040002005F0FABA10BD1B00002039
:1031D0002DE9F84F1A4F824600246FF00909A7F134
:1031E00018080021504622F0BFFF07EBC40500225B
:1031F000064611462B6805F03BFD00231A4619468A
:10320000304605F0B4FE0A221146304625F0CDFACC
:103210000021304604F032FDB5F9020000904B4623
:1032200010223046D8F8081023F0AAFE304623F0CA
:1032300050F8641C6E60032CD3DBBDE8F88F0000EF
:10324000E406002010B505210C202AF0FFF9012129
:103250000C2014F045FF042101202AF0F7F9052184
:1032600002202AF0F3F901212D202AF0EFF90021A4
:10327000022014F035FF03491E204880BDE81040AD
:1032800005F072B90C0000207CB501241F4825030D
:10329000CDE9004000232A461DA11F482EF024FE40
:1032A0002B461BA21DA12848009409F072FF174865
:1032B0000024001DCDE90040ED1023462A4623A13D
:1032C00024482EF011FE2B4620A214A11E48009483
:1032D00009F05FFF204800900023012214211FA065
:1032E0002EF098FF050008D02EF03EFE0246002387
:1032F0000121284600942EF0E5FF02B01423BDE81A
:10330000704016A21BA1104809F043BF0000002026
:10331000446973706C61790077430008437265619A
:1033200074653A207461736B3A25732C2073746151
:10333000636B3A25642C207072696F726974793AF4
:1033400025640D0A000000002409022053656E73F5
:103350006F72000081360008117C000854696D65A9
:10336000725461736B5F32306D7355706461746554
:10337000000000004372656174653A2074696D65F0
:10338000723A25732C2074696D653A25640D0A0024
:103390002DE9FC410446134813460A464460C88898
:1033A000B1F90260B2F90050801B401C01B2908854
:1033B000401B401C00B211FB00F70A2F0BDCCDE9CB
:1033C000000132462946084808F051FB2046BDE876
:1033D000FC411EF071BA19461046BDE8FC4103F0ED
:1033E0003BBB00005C050020680C002000EB4100A6
:1033F000052902D2B0F8010070470B2901D280885C
:103400007047112901D2C088704700207047A0F191
:103410004101192900D82030C0B270470020022194
:10342000491C0529FCDB401C0528F8DB704700001F
:103430002DE9F84F824600211CF018FC05462D228C
:10344000462125F0B2F93F49284625F0CEF83E4CFA
:10345000002211462846636805F0FCFB102200217B
:103460002846A36805F0F6FB0022082311462846EB
:1034700005F0AAFB00231A461946284605F069FD07
:103480006FF009062823052200212846009623F024
:1034900077FD0021284620F02DFB81462B4921F0A5
:1034A000CFFA00273B463A4629464846009723F084
:1034B00067FDDFF89C8000215046C8E90C591CF0DC
:1034C000D5FB05462D22462125F06FF91D492846DA
:1034D00025F08BF8002211462846E36805F0BAFB78
:1034E000102200212846236905F0B4FB2022002188
:1034F0002846636905F0AEFB0022082311462846E2
:1035000005F062FB00231A461946284605F021FD06
:10351000B300052200212846009623F031FD00214A
:10352000284620F0E7FA04460A4921F089FA0023E8
:103530001A4629462046009723F022FDC8F8385045
:10354000BDE8F88F815E0008D0310308BC9B0508F8
:10355000E804002024C6060810B5012100202AF046
:1035600075F8BDE810400249024806F0EBBB0000C8
:10357000C5670008F80B00202DE9F0470522114629
:103580001548FEF799FCDFF850800024052608F165
:103590000C074FF0080900BFFCF7CAFE90FBF6F1DC
:1035A00006FB1105FCF7C4FE90FBF6F106FB1100CB
:1035B00007EBC401C1E9005057F83430D8F80820AF
:1035C000641C052C52F8232042F82090E4DBBDE86F
:1035D000F0470148FEF7A3BCF81000204EF660212A
:1035E000B0FBF1F138B50D4B8AB202FB03F100EBF1
:1035F00041134FF47A74B3FBF4F39BB26FF07C0485
:103600005C4300EBC40000EB411080B2009008481E
:1036100003A1806B22F00DFD38BD0000ADF8FFFF67
:10362000253032643A253032642E25303364000070
:10363000F00100204EF66021B0FBF1F108B58BB22D
:103640000949594300EB41104FF47A71B0FBF1F096
:103650003C21B3FBF1F280B20090084803A1C06A9C
:1036600022F0E7FC08BD0000ADF8FFFF2530326412
:103670003A253032643A253032640000E8040020F4
:1036800001F0BCFFFFF784FD00F0E8FD0A202EF0FA
:1036900041F8F5E710B54FF4E1311C4807F08CFF15
:1036A0001BA11A4809F089FD28A1184809F085FDD9
:1036B0002DA1164809F081FD34A1144809F016FD2A
:1036C000FFF7C0FDFFF748FF012006F0E7F83B4990
:1036D0003B48FEF7B5FA01F0AFF906F069F903F0DF
:1036E0002FFDFDF7ADFAFEF779FEFFF7CDFD35A111
:1036F000064809F062FD39A1044809F0F7FCFDF71E
:1037000033FDBDE810402EF07FB8000024090220F0
:103710000D0A2B3D3D3D3D3D3D3D3D3D3D3D3D3D4E
:103720003D3D3D3D3D3D20576174636858204F53FA
:10373000203D3D3D3D3D3D3D3D3D3D3D3D3D3D3DD6
:103740003D3D3D3D3D3D2B0D0A000000404672656C
:103750006552544F53204B65726E656C2056313064
:103760002E342E31000000002D48617264776172A2
:10377000653A76312E300D0A2D536F66747761727B
:10378000653A76302E380D0A0000000057617463E8
:1037900068582D4949284A756E203132203230321E
:1037A000312031343A32303A3439204275696C6410
:1037B0002920696E69742E2E2E0D0A00A086010044
:1037C000005800404F532073746172742073636813
:1037D0006564756C65722E2E2E0000000D0A2B3D5F
:1037E0003D3D3D3D3D3D3D3D3D3D3D3D3D3D3D3D09
:1037F0003D3D3D3D3D3D3D3D3D3D3D3D3D3D3D3DF9
:103800003D3D3D3D3D3D3D3D3D3D3D3D3D3D3D3DE8
:103810003D3D2B0D0A000000134610B5084600225E
:1038200019460AF0FDF908B1002010BD0C2010BDAA
:103830000020704730B595B004460D4668461BF031
:1038400051FE1348CDE90040204621F0F4F800B2C3
:103850000DB1BE2101E04FF480710690CDE9070162
:103860006420099012A808210FF062FC0948129008
:1038700012A808220DF1100110F8013B01F8013BDC
:10388000521EF9D168461BF009FF15B030BD00008B
:10389000974B0208C3F5010810B594B0044668467A
:1038A0001BF020FE134814490069CDE9000121F006
:1038B000C2F800B20CB1F52101E04FF4807106901E
:1038C000CDE907016420099012A808210FF030FC0F
:1038D0000A48129012A808220DF1100110F8013BBD
:1038E00001F8013B521EF9D168461BF0D7FE14B017
:1038F00010BD0000B8030020974B0208C3F5010873
:103900002DE9F14FDFF8C890DFF8C8A082B000249D
:10391000A9F10C0B09EBC40059F83460456800218B
:1039200002981CF0A3F930228046114624F03DFF96
:103930000022574611464046DAF8043005F091F966
:10394000102200214046BB6805F08BF900220823B5
:103950001146404605F03FF92021404624F066FF1D
:10396000002202231146404605F0FAFA06EB460013
:10397000000100B2009005EB4500000103B20122F6
:103980000021404623F0FCFA0021404621F0FAFBDA
:103990000746DBF8080010A150F8260050F8252053
:1039A000384622F046FB0A48094A703806EB860181
:1039B00000EB8100D43A02EB810140F82570641CD1
:1039C00041F82580052CA5DBBDE8FE4FFFF726BD9D
:1039D00004110020A4320308256400002DE9F047FB
:1039E000814600258CB00E466C1ED9F80820A046F2
:1039F000284601A952F8203053F826302BB141F85F
:103A0000350001EBC5036D1C5E60401C0528F1DB31
:103A1000002D4CD004278A460AEBC50050E902125B
:103A2000D9F8080050F8273053F82630CBB1002CD5
:103A300036DBB8F1000F33DB50F8241051F82800C2
:103A400083422DD1424621463B4648460096FFF729
:103A5000C9FA6D1E002D23DD0AEBC50050E90212E4
:103A600019E0002C17DBB8F1000F14DB50F82130FF
:103A700050F824C053F822305CF8280083420AD161
:103A800000920B46424621464846FFF7ABFA6D1EB0
:103A9000002DE1DC06E03B464846009605F094FE2A
:103AA0003C46B0466D1E002D01DD7F1EB4D50CB026
:103AB000BDE8F08710B501F031F9002002F074FE86
:103AC0000E4808F011F800210C4807F017FF0021FC
:103AD0000A4807F0D7FE02F0A5FA21F009FB02F030
:103AE00033FE03F0BBF802F0C9F902F0B5FE01F0B5
:103AF00047FEBDE81040642103F020BE680C0020A2
:103B00000148B0F9000070471E00002030B5FFB03A
:103B100005464FF4FC7224496846FCF71BFC234C15
:103B2000A068019024F016F90490E068089024F051
:103B300011F90B90A0690F9024F00CF91290206AF3
:103B4000169024F007F91990A06A1D9024F002F94C
:103B5000209002F0B3FF164927902A4608682B9060
:103B6000D1F89C003290D1F838013990D1F8D401C5
:103B7000409048684790D1F8A0004E90D1F83C01A1
:103B80005590D1F8D8015C9020696390606A6A9082
:103B9000E06A7190206B78901221684604F076FDFF
:103BA00006F016F87FB030BD582C03083C0000200A
:103BB000340D002070B5174C20B3E06823F0C2FE2E
:103BC0000146206924F03FFFE06823F0BBFE054674
:103BD000206923F0B7FE291AB4F90200814208DDFA
:103BE000E06823F0AFFE0546206923F0ABFE281AFB
:103BF00002E0002800DD002000B26080BDE87040D7
:103C000003F050BE206924F0C6F86080E06823F01D
:103C100099FEF3E78000002030B58FB005463822CA
:103C20000E496846FCF796FB0D4CE0680190A068D1
:103C300023F088FE0390E06824F0ADF8049020693A
:103C4000089015B1012128F0F1F92A4602216846B1
:103C500004F01CFD05F0BCFF0FB030BD742E03084E
:103C60003C010020F0B5414C0746B1B094F82C005F
:103C7000C0070CD104F12C000CF0CAFD38B1A06BC8
:103C800024F089F8A08004F12C00AFF3008094F8B0
:103C90002800364DC00705F140050CD1A5F11800EC
:103CA0000CF0B6FD38B1A86824F075F8E080A5F1F5
:103CB0001800AFF30080606B23F044FE0646A8684E
:103CC00023F040FE304406B294F82400C0070CD123
:103CD000264824300CF09CFD38B1E06B24F03AF813
:103CE000208122482430AFF3008094F82000C007E0
:103CF0000CD11E4820300CF08BFD38B1E06B23F066
:103D000021FE608119482030AFF30080C422184999
:103D10006846FCF71FFBA06B019023F013FE4042A6
:103D20000390B4F904000490A06B0890A868119661
:103D30000F90B4F906001290A969CDE918601691A8
:103D4000A96A1D91CDE91F60E06B2490B4F90810B9
:103D500027912B90B4F90A002E903A460721684625
:103D600004F094FC05F034FF31B0F0BDF001002008
:103D7000C02E030870B5AAB00546A8222E49684691
:103D8000FCF7E8FA2D4CE068019023F0DBFD40429F
:103D90000390E06823F0FFFF04902069089023F06F
:103DA000D1FD40420A90206923F0F5FF0B90606935
:103DB0000F9023F0C7FD40421190606923F0EBFFA4
:103DC0001290206A169023F0BDFD40421890206AA0
:103DD00023F0E1FF1990A0691D90A06823F0B2FDC7
:103DE0000646A06923F0AEFD30441F90A06923F081
:103DF000D2FF2090606A2490A06823F0A3FD0646BD
:103E0000606A23F09FFD30442690606A23F0C3FF70
:103E100027902A460621684604F038FC05F0D8FEB3
:103E2000606806F027F802F05DFC85F001000121D2
:103E300003F0CAFA2AB070BDA82F03086002002060
:103E400070B588B005461C2213496846FCF782FA13
:103E5000124CA0680190606823F074FD0646A068CB
:103E600023F078FF30440390A06823F08BFF049088
:103E70002A460121684604F009FC05F0A9FE2068E5
:103E800005F0F8FF02F02EFC85F00100012103F09F
:103E90009BFA08B070BD0000503003088C0200206F
:103EA00070B596B00546542222496846FCF752FA8E
:103EB000214CE06A0190E06923F044FD0646E06A87
:103EC00023F040FD30440390E06A23F064FF049047
:103ED000206A0890E06923F035FD0646206A23F049
:103EE00031FD30440A90206A23F055FF0B90606A40
:103EF0000F90E06923F026FD0646606A23F022FD5C
:103F000030441190606A23F046FF12902A46032144
:103F1000684604F0BBFB05F05BFEA06905F0AAFF54
:103F200002F0E0FB85F00100012103F04DFA16B02C
:103F300070BD0000743003081003002070B596B007
:103F40000546542222496846FCF704FA214CA06831
:103F50000190606823F0F6FC0646A06823F0F2FCAE
:103F600030440390A06823F016FF0490E0680890A6
:103F7000606823F0E7FC0646E06823F0E3FC304489
:103F80000A90E06823F007FF0B9020690F906068AB
:103F900023F0D8FC0646206923F0D4FC304411906D
:103FA000206923F0F8FE12902A460321684604F0A7
:103FB0006DFB05F00DFE206805F05CFF02F092FB42
:103FC00085F00100012103F0FFF916B070BD00007B
:103FD000C8300308A403002070B596B005465422EB
:103FE00022496846FCF7B6F9214C60690190606887
:103FF00023F0A8FC0646606923F0ACFE3044039031
:10400000606923F0BFFE0490A0690890606823F007
:1040100099FC0646A06923F09DFE30440A90A069F1
:1040200023F0B0FE0B90A0680F90606823F08AFC2C
:104030000646A06823F08EFE30441190A06823F05D
:10404000A1FE12902A460321684604F01FFB05F0EA
:10405000BFFD206805F00EFF02F044FB85F0010073
:10406000012103F0B1F916B070BD00002C31030836
:10407000B803002070B588B005461C221349684675
:10408000FCF768F9124CE06A0190206923F05AFCB1
:104090000646E06A23F056FC30440390E06A23F0C1
:1040A0007AFE04902A460121684604F0EFFA05F0F2
:1040B0008FFDE06805F0DEFE02F014FB85F00100E4
:1040C000012103F081F908B070BD0000B43103088C
:1040D0004404002070B53B4C0546AAB094F820007B
:1040E000C0070CD104F120000CF092FB38B1606CD9
:1040F00023F030FEE08004F12000AFF30080207F49
:10410000C0070CD12F481C300CF082FB38B1606C1A
:1041100023F018FC20812B481C30AFF30080A8222C
:1041200029496846FCF716F9E06A019023F00AFC79
:1041300040420390E06A23F02EFE0490206B08902A
:10414000A06A23F0FFFB0646206B23F0FBFB304404
:104150000A90206B23F01FFE0B90A06B0F90A06ABB
:1041600023F0F0FB0646A06B23F0ECFB30441190EB
:10417000A06B23F010FE1290E06C169023F0E2FB8F
:1041800040421890E06C23F006FE1990606C1D9080
:10419000B4F9061020912490B4F9080027902A461B
:1041A0000621684604F072FA05F012FD606A05F017
:1041B00061FE02F097FA85F00100012103F004F995
:1041C0002AB070BDE8040020FC31030870B5CEB001
:1041D00005464FF49A721E496846FCF7BBF81D4C21
:1041E000A068019023F0AEFB40420390A06823F04A
:1041F000D2FD049060690890606823F0A3FB064636
:10420000606923F09FFB30440A90606923F0C3FD8E
:1042100011490B902A4608680F9048681690486923
:104220001D90C868249008692B90886804F11801D3
:10423000329048683990C8684090486947900B218F
:10424000684604F023FA05F0C3FC4EB070BD0000D0
:10425000C0A00708CC060020F803012010B50120FB
:1042600010F0D0FE0C4CA0802078002812D060887E
:1042700000280FD028F0C2FFA168401A618801EB26
:104280004102C2EBC111B0EBC10F03D3BDE8104036
:1042900000F026BE10BD00000C0000202DE9F04704
:1042A00081460F46D9F8081000256C1E8CB051F8D5
:1042B0002720A046042001A952F820302BB141F854
:1042C000357001EBC5036D1C5860401EF4D5002D00
:1042D0004ED000264FEA010A0AEBC50050E902124F
:1042E000D9F8080050F8273053F82630CBB1002C0D
:1042F00036DBB8F1000F33DB50F8241051F82800FA
:1043000083422DD1424621463B4648460096FEF761
:1043100069FE6D1E002D23DD0AEBC50050E9021277
:1043200019E0002C17DBB8F1000F14DB50F8213036
:1043300050F824C053F822305CF8280083420AD198
:1043400000920B46424621464846FEF74BFE6D1E44
:10435000002DE1DC06E03B464846009605F034FAC5
:104360003C46B0466D1E002D02DD761C052EB3DBEB
:104370000CB0BDE8F087FFF79DFB00F0A7FD00F053
:1043800051FA0A202DF0C6F9F7E7000038B50546C6
:10439000002120F0F7FE00220446224B114604F0D3
:1043A00009FD5E220021B92000F080FB03460022B7
:1043B0001146204604F052FD1BA1204621F001FECB
:1043C0000121204621F054FD1420009000230222F8
:1043D0002946204622F0D4FD0021284620F0D2FEB6
:1043E00000220546134B114604F0E4FC124800225B
:1043F00011460368284604F031FD10A1284621F03B
:10440000E0FD0121284621F033FD00200346009005
:104410000D222146284622F0B3FD0B49C1E905458E
:1044200038BD0000AC0600204F68204461726C6902
:104430006E670000740600201C3103085468652074
:10444000426561746C657300B803002010B50846BE
:1044500009F0A2FE002010BD2DE9F14F374826F0EB
:10446000C2FD3648052201210FF0FCFB0024334831
:10447000392122460FF0B4FB3048022230210FF0E0
:10448000F1FB2E48752122460FF0ECFB2B487921D9
:1044900022460FF0A5FB2948294A7E210FF066FC31
:1044A000DFF89890DFF89CB009F114094FF07F0A0B
:1044B00009EBC40159F834504F68002100981BF0F3
:1044C000D5FB804623223C2124F06FF9E01704EB52
:1044D000907626F00300201AC0EB0010800001B295
:1044E000404624F0A4FAB010C0EBC00000EB8000FE
:1044F00001B2404624F0A7FA1349404624F075F86B
:104500000E4A0021404622F021FD00223B46114682
:10451000404604F075FB102200214046DBF80830CD
:1045200004F06EFB404600212B4652460FF0A0F8E7
:10453000641C142CBCD3BDE8F88F00003C010020A3
:1045400004060020682E0308816C00082DE9F14F55
:1045500082B0374826F047FD3548052201210FF08B
:1045600081FB00252A46324839210FF039FB3048BB
:10457000022230210FF076FB2E4C10212C48A2682D
:1045800003F02CFF20212A48E26803F027FFDFF820
:10459000A0800024A94608F124086FF0090A4FF012
:1045A0000F0B00BF08EB04160021776802981BF080
:1045B0005DFB05462D22462124F0F7F8C4EBC4002C
:1045C00000EB80010BEB410003B2042200212846DE
:1045D000CDF800A022F0D4FC154A0021284622F094
:1045E000B5FC1549284624F000F8284600213B4632
:1045F00029220EF0EFFF002128461FF07BFA074624
:10460000316820F01DFA00231A4629463846CDF8B5
:10461000009022F0B5FCC6E90257641C032CC1D3FC
:10462000D8F8080003B02021BDE8F04F24F0FEB810
:104630000C020020AC2E0308AD6D00082DE9F14FEF
:104640000026DFF81481DFF814B182B0B2460021F1
:1046500002981BF00BFB06EB460708EBC704054668
:10466000B4F91220B4F9101024F09FF83C49284600
:1046700023F0BBFF0022D94611462846DBF8043060
:1046800004F0DAFA102200212846D9F8083004F0A4
:10469000D3FA28460021082301220EF0B5FF00239B
:1046A0001A461946284604F046FCB4F91600009054
:1046B000B4F9143001222846029922F061FC00214D
:1046C00028461FF017FA8146211D20F0B9F9002372
:1046D0001A4629464846CDF800A022F051FC761C27
:1046E00048F83750042EB2D3002102981BF0BEFACE
:1046F00064220546114624F058F81949284623F04B
:1047000074FF5446534610220021284604F094FAC0
:1047100000231A461946284604F00DFC0620009096
:104720003E2301222846029922F02AFC0021284635
:104730001FF0E0F906460B4920F082F900231A46E3
:1047400029463046009422F01BFC03492C39C1E96C
:104750000356BDE8FE8F0000E40300201C3103086F
:10476000C1700008EC270608F8B500211BF07EFA9E
:1047700004462D22462124F018F86FF0090000901D
:104780000F2304220021204622F0FAFB2149204673
:1047900023F02BFF204D002211462046AB6804F089
:1047A00036FA102200212046EB6804F030FA20226D
:1047B000002120462B6904F02AFA00220823114622
:1047C000204604F0E5F900252B462A4629462046D6
:1047D00004F064FB00231A461946204604F096FBB9
:1047E0000E4E0095502313222046F16822F0C8FB9C
:1047F000002120461FF07EF90746094920F020F9E4
:1048000000231A4621463846009522F0B9FB34624F
:10481000F8BD0000E9700008842F03086002002042
:104820007C93050810B528F0E9FC094C2168401A72
:104830000A280AD3002013F043FC38B100210548B0
:1048400005F082FA28F0DAFC206010BD0121F6E7BD
:1048500008000020F80B00202DE9F04397B0052157
:10486000102028F0F3FE01210846FDF7FFFB3A4D2A
:10487000DFF8E880686BC8F80800814695F83E705C
:1048800006A8FEF781FA00240A20ADF818000226D7
:10489000ADF82440079406A948460896FEF73AFA70
:1048A00001A8FEF72DFA6020ADF804000120ADF854
:1048B0001060ADF806000396012F06D0022F09D034
:1048C000032F0CD0042F13D10EE001A94846FEF7A8
:1048D00041F90DE001A94846FEF768F908E001A991
:1048E0004846FEF7A3F903E001A94846FEF7D8F9C8
:1048F00001214846FEF70FF9012211024846FEF752
:1049000015F901210846FDF7A5FB04200D901020A4
:10491000CDE90B4080201494119412940F90D5F897
:1049200000010E940C300A9010944FF440501390F4
:104930000AA94446D8F80C00FCF786FB4FF0E021AA
:104940004FF48050C1F8000101220221E068FCF719
:1049500073FB17B0BDE8F08398EE07085C050020F4
:104960002DE9F04781460F46D9F8081000258CB094
:104970006C1E51F82720A046284601A952F8203085
:104980002BB141F8357001EBC5036D1C5860401C1C
:104990000528F3DB002D4CD004268A460AEBC5001F
:1049A00050E90212D9F8080050F8273053F82630A1
:1049B000CBB1002C36DBB8F1000F33DB50F82410FC
:1049C00051F8280083422DD1424621463B464846B5
:1049D0000096FEF707FB6D1E002D23DD0AEBC500D8
:1049E00050E9021219E0002C17DBB8F1000F14DBBC
:1049F00050F8213050F824C053F822305CF82800D9
:104A000083420AD100920B46424621464846FEF7B1
:104A1000E9FA6D1E002DE1DC06E03B4648460096B3
:104A200004F0D2FE3C46B0466D1E002D01DD761E20
:104A3000B4D50CB0BDE8F087024800210170418078
:104A4000818070472400002018B54C09BDF8003063
:104A5000D20864F30203ADF80030C308BDF80000CB
:104A6000890863F3C70080B262F30C2080B261F35F
:104A70004F30ADF8000080B218BD18B54C09BDF834
:104A80000030D20864F30203ADF80030C308BDF86B
:104A90000000890863F3C70080B262F30C2080B283
:104AA00061F34F30ADF8000080B218BD18B54C0965
:104AB000BDF80030D20864F30203ADF80030C3083B
:104AC000BDF80000890863F3C70080B262F30C20D0
:104AD00080B261F34F30ADF8000080B218BD18B558
:104AE0004C09BDF80030D20864F30203ADF8003081
:104AF000C308BDF80000890863F3C70080B262F301
:104B00000C2080B261F34F30ADF8000080B218BDC8
:104B100010B50C4602F0C4FD30B103F025FD064887
:104B2000811C02F093F80120A073034801882180C2
:104B300040886080002010BD6C0500202DE9F14FF9
:104B400082B0724826F04FFA70480A2201210FF015
:104B500089F86E48002230210FF084F86C4829252E
:104B600041F22901026869480FF03AF86FF0090430
:104B700066482246042641F204010FF073F86348A8
:104B80002246052741F205010FF06CF85F48082125
:104B900010300EF0CDFA5D495E4810310A460860CB
:104BA00010215A4803F0D2FF584A002110325748CA
:104BB00003F0CCFF55486422B0210FF053F853485E
:104BC000B2212A460FF04EF85048B32132460FF07A
:104BD00049F84E48B4213A460FF044F8DFF82CA1CA
:104BE0000024A346A9460AF1180A0021029822F0DF
:104BF00099FA002380461A46194604F079F95022A2
:104C00001146404623F0D1FD0121404623F0E1FC4E
:104C10004149404623F0E9FC0AEB04110E464046A8
:104C200023F0F2FE029823F095F80546404623F063
:104C300091F8404205EB4001032091FBF0F005B2F2
:104C4000404623F087F8284407B2404623F082F814
:104C500000EBD070401005EBD57100EB610004EB68
:104C6000D471491001FB075109B2009100B2E1076C
:104C700000D1404203B202220021404622F080F9D6
:104C80000021404622F04EFA0546012123F047FD5F
:104C900000235F461A4619462846CDF800B022F098
:104CA0006FF90121284623F06CFC0121284623F0EE
:104CB00090FC164A0021284622F048F9502211465D
:104CC000284623F072FD7189ADF8001028464A4647
:104CD0003946009B0EF07EFC002128461EF00AFF9C
:104CE000804631681FF0ACFE00231A461946404644
:104CF000009722F045F90121404623F042FC641C54
:104D0000F5600A2CFFF471AFBDE8FE8F840000202F
:104D1000502E0308C3F50108AD76000844F6206262
:104D20004FF47A710B20FDF751B9000038B500211E
:104D30001BF050F904466422DC2123F036FD6FF0AD
:104D400013000023009005221946204622F018F98E
:104D5000012120461BF056FB204602217F232C22F6
:104D60000EF06CFC20460221012323220EF04CFCA5
:104D700020460221FF2321220EF046FC204602217C
:104D8000002322220EF040FC00220223114620467E
:104D900004F0BCF8002205231146204603F0F8FE7B
:104DA000114D002211462046AB6904F077F8042229
:104DB000002120461BF063FA204601219922EB696D
:104DC0000EF008FCB4233222002120461BF02BFBFE
:104DD000642120461BF0A2FA2046296A1BF0CAF87B
:104DE0000249C1E9094038BD842F03086002002050
:104DF00038B500211BF0EEF804463222C82123F01A
:104E0000D4FC78200023009002221946204622F08C
:104E1000B7F8022120461BF0F5FA002202231146C2
:104E2000204604F096F800220A231146204603F09B
:104E3000CBFE124D2046002139222B6A0EF0CAFB10
:104E40000422002120461BF01AFA20460121992253
:104E50006B6A0EF0BFFB96233222002120461BF026
:104E6000E2FA642120461BF059FA2046A96A1BF099
:104E700081F80349C1E9114038BD0000D031030871
:104E8000E804002010B50446FDF70CFA08488188B4
:104E9000E18081792172C1796172017AA172017810
:104EA0002170417861708078A0700020A08010BDD2
:104EB000580C02201CB582784178CDE900120378A5
:104EC000427A017AC088FDF7D3FA1CBD10B50348B9
:104ED00005F00FF8BDE8104026F000BBB80C00202C
:104EE00010B54FF4FA742146002002F027FC20464A
:104EF00004F06EFE0021BDE810400C2013F0F0B865
:104F000008B54FF47A74114D05260DE028684FF46A
:104F10007A71B0FBF4F04843B0FBF6F00090411E0C
:104F2000009101D30846FAE7002013F0C9F80028E1
:104F3000ECD0BFF34F8F06480168064A01F4E061E8
:104F400011430160BFF34F8F00BFFDE784090020CC
:104F50000CED00E00400FA05F8B50646002122F049
:104F6000E1F81C4D0446E86822F0F4FE01462046B4
:104F700023F051FD304622F0EDFE0321A03890FBD6
:104F8000F1F000F1500101EB8101084401B220462B
:104F900023F068FB002003460146009002222046D1
:104FA00021F0EEFF00231A461946204603F0A0FF29
:104FB0000949204623F019FB0121204623F0EFFA8E
:104FC0000121204623F00BFB0221204623F0F4FAB6
:104FD0002C61F8BD80000020917C00082DE9F84389
:104FE00000211BF0D5FD06461422DE2123F0DDFB57
:104FF00005200023009002221946304621F0C0FF10
:105000004FF000084546434642464146304603F0CD
:10501000F0FD00231A461946304603F062FF344C77
:1050200000213046A6601EF065FD064631491FF09E
:1050300007FD0023072219463046009521F0A0FF06
:10504000E661A06822F086FE0746304622F082FE26
:10505000381A0A2190FBF1F0801E06B2A06822F0F7
:1050600071FC81460021A06821F07EF807464A467F
:10507000314623F09AFB00231A461946384603F0BE
:1050800080FD00231A461946384603F02AFF1A48C5
:10509000002211460368384603F0ABFD00230822C6
:1050A00019463846009521F06BFF144E384637609C
:1050B00021F00FF901256FF001093168A06821F096
:1050C00053F8074606EB8500CDF8008050F8041C25
:1050D0004B461022384621F053FF384621F0F9F8AC
:1050E00046F825706D1C0A2DE7D3BDE8F883000053
:1050F0003C00002064810308142C03080C0D0020E0
:1051000038B500211BF044FD05462022DE2123F0A6
:105110004CFB0520184C009000230D222846A16866
:1051200021F02EFF00231A461946284603F029FDD8
:10513000002202231146284603F0D3FE0021284610
:10514000E56020F01FF8002205460C4B114603F0E5
:1051500011FE0BA1284620F034FF002001460090EC
:105160000A230722284621F00BFF2561E068BDE8ED
:10517000384000F049B800003C00002094050020B1
:1051800030302E30302E303000000000F8B50021D5
:105190001BF0FEFC04465D22DE2123F006FB052009
:1051A000164D009000230D222046E96821F0E8FE0C
:1051B00000231A461946204603F0E3FC104E204611
:1051C00000213922F3680EF005FA0022022311466D
:1051D000204603F086FE00220A4B1146204603F0CB
:1051E000C9FD002211462046336903F01FFE204608
:1051F000AC61BDE8F84000F0CFBC00003C000020EE
:10520000142C0308CC050020F8B5064600211BF03D
:10521000BFFC0546304622F095FB0446304622F09E
:1052200099FD00EBD07041102246284623F0BDFACC
:1052300000242346082221462846009421F0A0FE9F
:1052400000231A461946284603F09BFC1248002208
:1052500011464368284603F0CCFC00222346114641
:10526000284603F0E3FD002128461FF08BFF0022B3
:1052700005460A4B114603F07DFD09A1284620F0A2
:10528000A0FE00231A4619462846009421F078FE15
:1052900004484561F8BD0000142C03089405002063
:1052A00053554E003C000020014800787047000034
:1052B000C40600202DE9F04F85B0FBF739F8032133
:1052C00090FBF1F201FB120600240527A046DFF84F
:1052D000C890DFF8C8A04FF0640B314D761C56E043
:1052E00055F8240040BBFBF723F890FBF7F107FBD0
:1052F0001104FBF71DF800EBD07121F00101401AF9
:10530000C100234600220831D9F8080004F0FCFB54
:1053100055F8240022F03FFDCDE901B8CDE9038A1C
:105320000346CDF8008055F824001E4A002100F005
:1053300097F955F8240048B3FAF7FAFF90FBF7F114
:1053400007FB110455F824000028F5D1FAF7F0FF07
:1053500000EBD07121F00101401AC1002346002268
:105360000831D9F8080004F0CFFB55F8240022F0EA
:1053700012FDCDE901B8CDE9038A0346CDF80080DE
:1053800055F82400074A002100F06AF9761E002E25
:10539000A6DC05B0BDE8F08F38050020FBF501085C
:1053A00030100020478A02082DE9F14F82B0002119
:1053B00002981EF09FFB82467C491FF041FB0024AF
:1053C0002F23012221465046009421F0D9FD0021CF
:1053D00002981FF0D7FE00228146754B114603F05C
:1053E000F1FC744F0022114648463B6803F03EFD35
:1053F00071A1484620F0E5FD0121484620F038FD26
:10540000601F00900F2312225146484621F0B8FD3C
:10541000002102981FF0B6FE0022694B1146019050
:1054200003F0D0FC002211467B68019803F01EFDBA
:1054300064A1019820F0C5FD0121019820F018FD1C
:105440006FF00E00009000230D224946019821F0D4
:1054500097FD002102981FF095FE00228046544BD4
:10546000114603F0AFFC002211464046BB6803F032
:10547000FDFC55A1404620F0A4FD0121404620F04E
:10548000F7FC6FF0630000230090052219464046A8
:1054900021F076FD002102981FF074FE00220646DE
:1054A0004C4B114603F08EFC002211463046FB683F
:1054B00003F0DCFC48A1304620F083FD012130469A
:1054C00020F0D6FC00230D2241463046009421F006
:1054D00057FD002102981FF055FE00228346344BF1
:1054E000114603F06FFC0022114658463B6903F059
:1054F000BDFC3CA1584620F064FD0121584620F037
:10550000B7FC00230D2231465846009421F038FDA7
:10551000002102981AF0AAFB05461E22502123F012
:1055200044F93349284623F060F800222346114607
:10553000284603F088FB1022002128467B6903F0EF
:1055400082FB002208231146284603F036FB002286
:1055500023461146284603F0B6FC00231A46194696
:10556000284603F0EFFC6FF00900009000230522AD
:105570002846029921F004FD002102981EF0BAFA93
:1055800007461C491FF05CFA00231A462946384694
:10559000009421F0F5FC1848C0E905A901990564BB
:1055A000C0E90718C0E9096BBDE8FE8FACD8040854
:1055B000AC0600208031030873636F726500000041
:1055C0003C06002037380000546F74616C20746909
:1055D0006D6500000406002038682035326D696E64
:1055E0000000000030303A32392D30393A3438007A
:1055F000895700080C3106084404002010B51548EE
:1056000008F0B4F8022822D00020134C00282070A3
:105610001FD0104808F08AF8C0F1EF0060800D48F4
:1056200008F094F8C0F1EF00A0800A22B4F902104B
:105630000A4807F068FD2C21084807F05AFDB4F924
:105640000410BDE810400A22044807F0CABD01203A
:10565000DBE710BD540C00202400002024090220A8
:105660002DE9F04F95B09B46DDE92158DDE91F9A01
:1056700016460C00074603D16C46204619F032FF4F
:10568000C4F82490C4E900761E990FFA8BF009B291
:10569000A061C4E90701CAF10000A06212A80821B4
:1056A0000DF046FD12A904F110000822CDF8488043
:1056B00011F8013B00F8013B521EF9D1E56020468C
:1056C000A56019F0EBFF15B0BDE8F08F2DE9F843A8
:1056D0008146234825F087FC2148002201210EF055
:1056E000C1FA1F48002230210EF0BCFA00251C48E8
:1056F0002A212A460EF074FA194829212A460EF06A
:105700006FFA184848F28901026815480EF068FAE5
:10571000DFF8548000242F460021484621F002FD86
:1057200006460F4A002121F011FC484622F00AF9F2
:105730000546484622F00EFB01462A46304623F035
:1057400034F800231A4619463046009721F018FC19
:1057500048F82460641C102CDEDBBDE8F8830000F0
:105760003800002058230308CC0C0020102803D256
:10577000024951F82000704700207047CC0C0020EF
:105780004FF47A70704700002DE9F04385B007466A
:10579000062973D13B4C207AC0070CD104F10800D4
:1057A0000BF036F838B1E06A22F0F5FA208004F107
:1057B0000800AFF300802079C0070CD13148001DEC
:1057C0000BF026F838B1A06B22F0E5FA60802D4886
:1057D000001DAFF30080206C00252B4E4FF06409B4
:1057E000874227D1206922F0ADF8B4F900100F1AD2
:1057F000E06A22F0D0FACDE90195B0460097CDE9F4
:10580000035803464E46214A0021E06AFFF728FF6D
:10581000206922F097F8B4F902100F1AA06B22F059
:10582000BAFACDE901650097CDE903580346174A56
:10583000002120E0E06B874220D1E06A22F0ABFA41
:10584000CDE90195CDE903560346B4F90000009077
:105850004F460E4A0021E06AFFF702FFA06B22F0DC
:105860009AFACDE90175CDE903560346B4F9020071
:10587000064A00210090A06BFFF7F2FE05B0BDE8DC
:10588000F083000044040020FBF50108478A020869
:105890002DE9F14F82B00021029821F043FC9A22B9
:1058A0008246114622F081FF002205231146504610
:1058B00003F098F900231A461946504603F057FBA7
:1058C0006FF0040000900A2304220021504621F0CA
:1058D00057FB31490024314EA346C1F814A0022CD5
:1058E00001DB504600E0029800211AF0BFF9302297
:1058F0008146114622F059FF04EB440706EB87006E
:10590000B0F908100091B0F906300279002148463C
:1059100021F036FB214D0022143D114648462B68EC
:1059200003F0A6F91022002148466B6803F0A0F9A5
:10593000002208231146484603F054F900225D4630
:105940005B461146484603F0C5FA00231A4619463D
:10595000484603F00CFB1249484622F046FE00215F
:1059600048461FF00FFC804656F8271020F029FB10
:105970002B46404648F2890219460DF02BFE0021C5
:10598000484602F07BF9074941F82490641C062C34
:10599000A5DBBDE8FE8F0000CC06002078A007083C
:1059A00015840008F8030120F8B500211BF0F0F879
:1059B00005462022962122F0F8FE05202E4C00906C
:1059C00000230C222846216A21F0DAFA2846002119
:1059D000A5621BF0DDF80646A06A21F0B3FF05467C
:1059E000A06A22F0B7F9032190FBF1F001B22A4638
:1059F000304622F0DAFE00252B46072229463046A3
:105A0000009521F0BDFA1D4800221146C3693046B9
:105A100003F0EFF800222B461146304603F006FA59
:105A2000002130461FF0AEFB00220746144B114602
:105A300003F0A0F913A1384620F0C3FA00231A4658
:105A400019463846009521F09BFA0021A06A1FF004
:105A500099FB002207460A4B114603F08BF90AA175
:105A6000384620F0AEFA0A23132231463846009514
:105A700021F086FAE762F8BD3C000020142C0308F0
:105A80009405002053545000303030303000000076
:105A900010B501211F4802F0F5FA02211D4802F05D
:105AA00003FD04211B4802F025FE0C21194802F0D9
:105AB0003BFD0721174802F017FD0921154802F0A8
:105AC00001FB0D21134802F085F80E21114802F068
:105AD000BBFE06210F4800F007FC0A210D4800F02C
